:020000040800F2
:100000006820002021020008471400089712000809
:10001000451400086B040008C51700080000000024
:10002000000000000000000000000000890100083E
:100030006D04000800000000CD010008390200082E
:100040003B0200083B0200083B0200083B0200089C
:100050003B0200083B0200086F0400083B02000856
:100060003B0200083B0200083B0200083B0200087C
:100070003B0200083B0200083B0200083B0200086C
:100080003B0200083B0200083B0200083B0200085C
:100090003B0200083B0200083B0200083B0200084C
:1000A0003B0200083B0200083B0200083B0200083C
:1000B0003B0200083B020008811500083B020008D3
:1000C0003B0200083B0200083B0200083B0200081C
:1000D0003B0200083B0200083B0200083B0200080C
:1000E0003B0200083B0200083B02000800F002F857
:1000F00000F03AF80AA090E8000C82448344AAF188
:100100000107DA4501D100F02FF8AFF2090EBAE885
:100110000F0013F0010F18BFFB1A43F0010318473B
:100120006C2F00008C2F0000103A24BF78C878C1D3
:10013000FAD8520724BF30C830C144BF04680C60ED
:10014000704700000023002400250026103A28BF35
:1001500078C1FBD8520728BF30C148BF0B60704739
:100160001FB51FBD10B510BD00F04AF91146FFF7CD
:10017000F7FF01F051FB00F068F903B4FFF7F2FF5D
:1001800003BC00F06BF90000224B19680868B0E866
:10019000F00F80F30988BFF36F8F4FF0000080F3FA
:1001A00011884EF00D0E70470000000006480068F0
:1001B000006880F3088862B661B6BFF34F8FBFF363
:1001C0006F8F00DF00BF00BF08ED00E0EFF3098094
:1001D000BFF36F8F0F4B1A6820E9F00F106008B55E
:1001E0004FF0500080F31188BFF34F8FBFF36F8F34
:1001F00002F0F0F94FF0000080F31188BDE80840EC
:1002000019680868B0E8F00F80F30988BFF36F8FB2
:10021000704700BF20000020EFF30580704700000A
:100220000948804709480047FEE7FEE7FEE7FEE78A
:10023000FEE7FEE7FEE7FEE7FEE7FEE704480549C6
:10024000054A064B7047000077150008ED000008CE
:10025000681A002068200020681C0020681C00200C
:10026000032A40F2308010F0030C00F0158011F8E2
:10027000013BBCF1020F624498BF11F801CB00F8BA
:10028000013B38BF11F8013BA2F1040298BF00F80E
:1002900001CB38BF00F8013B11F0030300F0578099
:1002A000083AC0F0088051F8043B083A51F804CBF2
:1002B000A0E80810F5E7121D5CBF51F8043B40F8B8
:1002C000043BAFF30080D20724BF11F8013B11F8C3
:1002D00001CB48BF11F8012B24BF00F8013B00F807
:1002E00001CB48BF00F8012B704702F0FF0343EA3F
:1002F000032242EA024200F05EB84FF0000200B56D
:10030000134694469646203922BFA0E80C50A0E838
:100310000C50B1F12001BFF4F7AF090728BFA0E8E6
:100320000C5048BF0CC05DF804EB890028BF40F8B2
:10033000042B08BF704748BF20F8022B11F0804FF4
:1003400018BF00F8012B704770477047704710B511
:10035000203AC0F00B80B1E81850203AA0E81850BD
:10036000B1E81850A0E81850BFF4F5AF5FEA027C7E
:1003700024BFB1E81850A0E8185044BF18C918C0ED
:10038000BDE810405FEA827C24BF51F8043B40F88E
:10039000043B08BF7047D20728BF31F8023B48BF73
:1003A00011F8012B28BF20F8023B48BF00F8012BB1
:1003B00070474FF000020429C0F0128010F0030CC7
:1003C0003FF49DAFCCF1040CBCF1020F18BF00F854
:1003D000012BA8BF20F8022BA1EB0C01FFF78FBF68
:1003E0005FEAC17C24BF00F8012B00F8012B48BF55
:1003F00000F8012B7047000000487047041A0020E5
:100400007546FFF7F9FFAE4605006946534620F0F2
:100410000700854618B020B5FFF710FFBDE8204063
:100420004FF000064FF000074FF000084FF0000BB0
:1004300021F00701AC46ACE8C009ACE8C009ACE863
:10044000C009ACE8C0098D46704710B50446AFF34B
:1004500000802046BDE81040FFF78FBE01491820FC
:10046000ABBEFEE7260002007047FEE770470120A2
:1004700000F004B872B6FEE770470000044910B5FA
:100480000A68024202D00860FFF7F6FF10BD0000C4
:10049000140401402DE9F84FDFF8B8910024A9F1C8
:1004A000040B23460F2709F1040AABF1040EC9E03F
:1004B0000125A5402A40AA427DD1674ED1F804C04B
:1004C000ACEB0608B44532D014DCBCF1030F3AD0D3
:1004D00009DCBCF1000F2AD0BCF1010F1CD0BCF12B
:1004E000020F31D11DE0BCF1110F17D0BCF1120F7A
:1004F0002AD119E0B8F5881F19D006DCB8F5803F7D
:1005000015D0B8F5801F1FD111E0B8F5001F0ED02F
:10051000B8F5041F18D10AE0CB6815E0CB681B1DA5
:1005200012E0CB6808330FE0CB680C330CE08B682B
:100530002BB1012B4FF0080303D0456104E00423E5
:1005400002E0056100E00023FF2A01D8064601E031
:1005500000F104064FEA840501D9A5F12005D6F87B
:10056000008007FA05FC28EA0C0803FA05F548EABA
:100570000508C6F800804D68ED0062D5374DAE69BC
:1005800046F00106AE61AD6924F0030605F00105F1
:100590000095334D06EB050CDCF80850A607360F26
:1005A00007FA06F825EA0805DFF8B880404503D1C8
:1005B0004FF0000817E044E0DFF8AC80404502D17E
:1005C0004FF001080FE0DFF8A480404502D14FF062
:1005D000020808E0DFF89880404502D14FF0030898
:1005E00001E04FF0040808FA06F848EA0508CCF8DC
:1005F00008804D68D9F80060ED024D4601D51643DC
:1006000000E096432E604D68DAF80060AD02554672
:1006100001D5164300E096432E604D68DBF800607C
:10062000AD035D4601D5164300E096432E604D684C
:10063000DEF80060ED03754601D5164300E09643F1
:100640002E60641C0D682A46E5407FF431AFBDE89A
:10065000F88F000008040140000011100010024053
:100660000000014000080140000C01400010014062
:10067000001401400AB1016170470904FBE7000062
:10068000014880687047000010000020024881681F
:10069000027811448160704710000020074810B5AF
:1006A000016841F010010160032000F0A7F80F205D
:1006B00000F006F800F050F8002010BD00200240C5
:1006C00030B505461F4887B0C16941F00401C161DA
:1006D000C06906A900F00400009001A800F036F9F6
:1006E0000498B0B100F052F940001749174AB0FB26
:1006F000F1F11748491E0260416040F2E7320021E3
:10070000C0E903218160816100F03CFB040003D05B
:1007100015E000F03BF9E8E70D4800F075FB040038
:100720000DD11E2000F03CF8102D07D200222946E2
:100730001E2000F043F80748056000E0012407B0E0
:10074000204630BD0010024040420F00000800402B
:10075000E8000020140000200F4808B5816941F02E
:1007600001018161816901F001010091C16941F0DC
:100770008051C161C069002200F0805000900F21BB
:10078000901E00F01BF80548416821F0E06141F03F
:100790000071416008BD00000010024000000140EF
:1007A000002809DB00F01F02012191404009800070
:1007B00000F1E020C0F8001170470000F0B40E4BCB
:1007C0001B680C46C3F30223C3F10705042D00D9AF
:1007D0000425191D072901D2002300E0DB1E012694
:1007E00006FA05F1491E214099409E40761E1640AA
:1007F0003143F0BC00F0E7BF0CED00E0064900F02B
:10080000070208684FF6FF03184040EA0220034A37
:1008100010430860704700000CED00E00000FA058E
:100820002DE9F0470F46050061D0434E306800F0D7
:100830000700B84209D2306820F007003843306022
:10084000306800F00700B84251D128683B4C81075E
:1008500012D5400703D5606840F4E06060602878F6
:10086000000703D5606840F4605060606068A96864
:1008700020F0F000084360602878C00728D068683E
:10088000012810D02168022810D0890700292EDA0B
:10089000616821F0030101436160FFF7F1FE8046CA
:1008A00041F288390DE021688903EFE78901EDE71E
:1008B000FFF7E6FEA0EB0801494502D90320BDE899
:1008C000F0876068696800F00C00B0EB810FEFD131
:1008D000306800F00700B8420BD9306820F00700FC
:1008E00038433060306800F00700B84201D0012082
:1008F000E5E72878400705D56068E96820F4E060FE
:10090000084360602878000706D56068296920F4EC
:10091000605040EAC100606000F048F86168084A31
:10092000C1F30311515CC8400649086006480068DD
:10093000FFF7C6FE0020C2E7002002400010024080
:10094000663000081C000020140000200F22026006
:100950000C4A536803F003034360536803F0F00349
:100960008360536803F4E063C36052684FF4E0634C
:1009700003EAD20202610448006800F00700086040
:100980007047000000100240002002400448054962
:1009900000684968044AC1F30221515CC8407047AD
:1009A0001C00002000100240763000080E4A5168FA
:1009B0000E4801F00C03042B11D0082B0FD10C486A
:1009C000C1F38343C903C05C0AD55168084AC1F327
:1009D0004041921E515C054A5043B0FBF1F0704714
:1009E00004494843704700000010024000127A009A
:1009F0005630000800093D002DE9F84F040070D082
:100A00002078C04DC00749D06868C0F38100012834
:100A100007D06868C0F38100022809D16868C00364
:100A200006D52868800339D560680028E7D035E00E
:100A30006068B0F5803F0BD010B1B0F5A02F11D099
:100A4000286820F480302860286820F4802002E0A4
:100A5000286840F480302860606890B1FFF710FE8D
:100A600006460AE0286840F480202860F0E700BFCE
:100A7000FFF706FE801B642873D828688003F7D52B
:100A80000CE0FFF7FDFD064605E000BFFFF7F8FDAF
:100A9000801B6428F0D828688003F7D420789A4E09
:100AA00080074FF001094FF0000839D5686810F051
:100AB0000C0F07D06868C0F38100022809D168686C
:100AC000C00306D42868800714D52069012808D1FE
:100AD00010E02069B0B1C6F80090FFF7D1FD0746DD
:100AE00005E00AE1FFF7CCFDC01B0228C4D8286846
:100AF0008007F7D52868616920F0F80040EAC10056
:100B000028600DE0C6F80080FFF7BAFD074604E054
:100B1000FFF7B6FDC01B022823D828688007F7D44A
:100B2000207800072CD57948A169D9B1C0F8009088
:100B3000FFF7A6FD074604E0FFF7A2FDC01B022851
:100B40000FD8686A8007F7D571484FF4FA510068EA
:100B5000B0FBF1F0009000BF0098411E0091FAD266
:100B60000EE080E0C0F80080FFF78AFD074604E051
:100B7000FFF786FDC01B022875D8686A8007F7D486
:100B80002078400760D5E8690027C00008D4E869EC
:100B900040F08050E861E869012700F08050009043
:100BA0005C480168C90513D40168834641F480712B
:100BB0000160FFF765FD824606E000BFFFF760FDBC
:100BC000A0EB0A0064284ED8DBF80000C005F5D57C
:100BD000E06801280AD008B1052813D0286A20F05F
:100BE00001002862286A20F0040002E0286A40F030
:100BF00001002862E06841F2883B98B1FFF740FDB0
:100C000082460BE0286A40F004002862EEE700BF4D
:100C1000FFF736FDA0EB0A0159455AD8286A80072C
:100C2000F6D50CE0FFF72CFD824605E0FFF728FD26
:100C3000A0EB0A0159454CD8286A8007F6D41FB1A9
:100C4000E86920F08050E861E06988B36968C1F321
:100C50008101022944D00228C6F8608004D0FFF741
:100C60000FFD044638E034E0FFF70AFD074604E0D4
:100C7000FFF706FDC01B02282BD828688001F7D497
:100C8000206AB0F5803F05D16868A16820F4003083
:100C900008436860D4E908010843696821F47411C5
:100CA00008436860C6F86090FFF7EAFC044606E077
:100CB00025E000BFFFF7E4FC001B022809D82868E4
:100CC0008001F7D51BE000BFFFF7DAFC001B02280C
:100CD00002D90320BDE8F88F28688001F4D40EE023
:100CE0000128F7D06868226A00F48031914204D16B
:100CF000616A00F47010884201D00120EAE7002008
:100D0000E8E7000000100240000042428004424236
:100D10001C000020007000407047704770B590F8CC
:100D20003C20012A26D0012480F83C40022280F891
:100D30003D2003685A689D6822F070060A683243B5
:100D40005A600D4B02689A4208D0B2F1804F05D02C
:100D50000A4B9A4202D00A4B9A4204D1496825F0C4
:100D600080031943916080F83D40002180F83C10D9
:100D7000084670BD022070BD002C014000040040F8
:100D80000008004010B5040003D094F83D0010B1F5
:100D900007E0012010BD002084F83C00204600F050
:100DA0001FF8022084F83D00211D206800F0EEFBB2
:100DB000012084F8460084F83E0084F83F0084F85F
:100DC000400084F8410084F8420084F8430084F82D
:100DD000440084F8450084F83D00002010BD000068
:100DE00008B500680649884208D10648816941F47F
:100DF00000618161806900F40060009008BD00001E
:100E0000002C01400010024090F83D10012901D053
:100E100001207047022180F83D100168CA6842F045
:100E20000102CA6000680B49884208D0B0F1804FC7
:100E300005D00949884202D00849884204D1816816
:100E400001F00701062903D0016841F001010160AA
:100E500000207047002C01400004004000080040C2
:100E600070B5044690F83C000025012817D00126F3
:100E700084F83C60022084F83D002068826822F0FB
:100E8000770222F47F4282600868502838D00DDC57
:100E900020284FD005DC90B3102811D14AE0022061
:100EA00070BD302846D040280AD13BE060282FD0C2
:100EB00070280DD0B0F5805F03D0B0F5005F12D080
:100EC000012584F83D60002084F83C00284670BD70
:100ED000CB68D1E90121206800F09BFB2068816884
:100EE00041F0770109E0CB68D1E90121206800F0E9
:100EF00090FB2068816841F480418160E1E719E05E
:100F0000CA684968206800F039FC5021206806E072
:100F1000CA684968206800F042FC6021206800F03F
:100F200082FBCEE7CA684968206800F027FC4021B0
:100F30002068F4E7226801461046F0E7704770B574
:100F40000446006801694FF00005C943890715D4BC
:100F5000C168C943890711D4E91E016101202077C6
:100F6000206880698007204602D0FFF7E7FF04E091
:100F700000F098F8204600F0FCF825772068016919
:100F8000C943490717D4C168C943490713D46FF04F
:100F900004010161022020772068806910F4407FFD
:100FA000204602D0FFF7CAFF04E000F07BF820469D
:100FB00000F0DFF8257720680169C943090716D4D6
:100FC000C168C943090712D46FF008010161042008
:100FD00020772068C0698007204602D0FFF7AEFF67
:100FE00004E000F05FF8204600F0C3F825772068A1
:100FF0000169C943C90617D4C168C943C90613D4D6
:101000006FF010010161082020772068C06910F49A
:10101000407F204602D0FFF791FF04E000F042F845
:10102000204600F0A6F8257720680169C943C90762
:1010300008D1C168C943C90704D1891E016120468E
:1010400000F01EF920680169C943090609D4C16886
:10105000C943090605D46FF0800101612046FFF7FE
:101060005BFE20680169C943490609D4C168C943C8
:10107000490605D46FF040010161204600F00AF9ED
:1010800020680169C94389060BD4C168C943890630
:1010900007D46FF0200101612046BDE87040FFF7E2
:1010A0003CBE70BD704770B5044690F83C00002609
:1010B0000D4601280FD0012084F83C006AB1042AB3
:1010C0001DD0082A2FD00C2A3FD00126002084F8FA
:1010D0003C00304670BD022070BD206800F0ACFAC4
:1010E0002068816941F0080181612068816921F0EF
:1010F00004018161206881692A69114311E0206837
:1011000000F0C2FA2068816941F4006181612068C1
:10111000816921F480618161206881692A6941EADD
:1011200002218161D2E7206800F0DAFA2068C16903
:1011300041F00801C1612068C16921F00401C16169
:101140002068C1692A69114311E0206800F0F4FAAF
:101150002068C16941F40061C1612068C16921F45E
:101160008061C1612068C1692A6941EA0221C161C7
:10117000ACE7704710B50446022249B104290ED0ED
:10118000082913D094F84100012816D0012010BD81
:1011900094F83E000128F9D184F83E200FE094F83D
:1011A0003F000128F2D184F83F2008E094F8400085
:1011B0000128EBD184F8402001E084F8412001228D
:1011C000206800F019FA0F492068884203D1426C68
:1011D00042F4004242642068884208D0B0F1804F57
:1011E00005D00949884202D00849884204D1816863
:1011F00001F00701062903D0016841F001010160F7
:10120000002010BD002C01400004004000080040F8
:1012100030B504460D460068002200F0EDF9174B8A
:1012200041F2111120688A10984209D1036A0B42D9
:1012300006D1036A134203D1436C23F40043436491
:101240002068036A0B4206D1016A114203D101688A
:1012500021F00101016001203DB1042D08D0082DCD
:1012600009D084F84100002030BD84F83E00FAE740
:1012700084F83F00F7E784F84000F4E7002C0140D1
:1012800000680349884201D1FFF700BA70470000A7
:10129000000800407047FEE71CB50E480090002390
:1012A00001224FF47A710CA001F044FE0C4C0D4A5F
:1012B000002160600C4800F015FBA060214618205A
:1012C000CDE900010023802208A10C4801F088FC30
:1012D0001CBD0000C317000854696D657231000021
:1012E0000000002030300008F114000853686F77C8
:1012F00054696D655461736B00000000C9140008E7
:101300002DE9F04385B000242E4800940194029406
:101310000394816941F010018161816901F010013C
:101320000491816941F020018161816901F020010E
:101330000491816941F008018161816901F008012E
:101340000491816941F0040181618069DFF878804E
:1013500000F004004FF40055049000222946404656
:10136000FFF788F9DFF864904FF4407700223946A0
:101370004846FFF77FF90095022601250396CDE93F
:10138000015469464046FFF785F811480095CDE9BC
:10139000010469464846FFF77DF801AA112000972D
:1013A00082E8510069464846FFF774F8002205219B
:1013B0000620FFF703FA0620FFF7F2F905B0BDE8B3
:1013C000F08300000010024000100140000C0140BA
:1013D0000000111010B586B0002419480094019443
:1013E00002940394049415490594016041F63F71F9
:1013F000C0E9011442F20F71C1604FF48071C0E97D
:1014000004148461FFF7BEFC08B1FFF733F84FF412
:101410008050009069460A48FFF722FD08B1FFF7A7
:1014200029F8049404A906480594FFF777FC0028DE
:1014300001D0FFF71FF806B010BD0000002C0140DE
:10144000A0000020FEE7FEE7010004484FF0000185
:10145000006801D0FFF78EBEFFF7DABE9C000020C7
:1014600070B58CB01C216846FEF747FF4FF48070C2
:101470000225CDE90705002407A91048CDE9094553
:10148000FFF708F80F4E0E484722316815C140F2A9
:10149000E732E1E80224802261E8044200F076F8B5
:1014A00060200090049440F2F310CDE90105002281
:1014B00069463068FFF7F7FD0CB070BD00080140C9
:1014C000002C01409C00002000F08EF90421002235
:1014D000084601F005F90449086020B101225103D2
:1014E0000248FFF7C7F8FEE70C000020001001409B
:1014F000084C08B5606848B101F0D8FB02460020EE
:10150000034600900121606801F05EFD012000F0BB
:1015100093F9FBE70000002030B58FB02821684622
:10152000FEF7EBFE14210AA8FEF7E7FE01210804EE
:10153000CDE900100024029402250491CDE9075062
:101540004FF4E01009906846FFF756FA08B172B6FA
:10155000FEE70F20CDE90A054FF48060CDE90C408D
:1015600002210AA80E94FFF75BF9002801D072B699
:10157000FEE70FB030BD70470020FFF765BF0000E9
:101580000148FFF7DCBC0000E8000020F0B502686D
:10159000164B174C174D4FF08047984205D0B84274
:1015A00003D0A04201D0A84203D122F070064A68BD
:1015B0003243984205D0B84203D0A04201D0A8429D
:1015C00003D122F44074CA6822434C6922F080029D
:1015D000224302608A68C2620A688262984201D12C
:1015E0000969016301214161F0BD0000002C014047
:1015F000000400400008004010B501F01F03012165
:10160000046A99408C430462016A9A401143016262
:1016100010BD10B5846842EA032224F47F440A43D3
:101620002243826010BD826822F070020A4342F0B9
:10163000070181607047000030B5036A026A22F03A
:10164000010202624268846924F073050C682C432D
:1016500023F002058B682B430A4DA8420BD123F0DF
:101660000805CB6822F440722B434D6923F0040334
:1016700015438A692A434260846149684163036271
:1016800030BD0000002C014030B5026A036A23F02F
:1016900010030362436884690D6824F4E64444EA55
:1016A00005248D6822F0200242EA05120B4DA84263
:1016B0000ED1CD6822F0800242EA05124D6923F472
:1016C000406343EA85038D6922F0400243EA8503C3
:1016D0004360846149688163026230BD002C01402F
:1016E00030B5036A026A22F4807202624268C469F9
:1016F00023F4007324F073050C682C438D6843EACF
:1017000005230C4DA8420ED1CD6823F4006343EAB3
:1017100005234D6922F4405242EA05128D6923F4F3
:10172000806342EA05124260C4614968C163036292
:1017300030BD0000002C014030B5046A026A22F47A
:10174000805202624268C3690D6823F4E64343EAAB
:1017500005238D6824F4005444EA0534064DA8425C
:1017600004D14D6922F4804242EA85124260C3618D
:1017700049680164046230BD002C014010B5036A61
:10178000046A24F001040462846924F0F00444EA49
:10179000021423F00A020A438461026210BD10B5EC
:1017A000036A046A24F010040462846923F0A0032D
:1017B00024F4704444EA023243EA01118261016276
:1017C00010BD7047FEE70907090E002804DB00F191
:1017D000E02080F80014704700F00F0000F1E020D6
:1017E00080F8141D7047000008B5FFF739FE054862
:1017F000002300901A46C82103A001F09BFB054975
:10180000086008BD7915000853797374656D536FCE
:10181000756E640098000020FEF740FFFFF77CFE25
:10182000FFF76EFDFFF7D6FD00F020F8FFF734FD5F
:1018300000F038F8FEE7000010B5EFF3058149B974
:10184000EFF3108131B908490968022905D1EFF396
:10185000118111B16FF0050403E0002408B100F01C
:1018600005FE204610BD000070000020EFF305804B
:1018700058B9EFF3108040B909490868022801D02F
:1018800030B109E0EFF3118030B16FF0050070471F
:1018900001200860002070474FF0FF3070470000C3
:1018A0007000002010B5EFF3058060B9EFF31080F1
:1018B00048B90B490868022802D0012806D00BE07D
:1018C000EFF3118040B16FF0050010BD02200860F9
:1018D00000F034FE002010BD4FF0FF3010BD0000BE
:1018E00070000020F0B585B04FEA01034FF000040E
:1018F000EFF305810394A1BBEFF3108189BB21496C
:101900000968022902D1EFF3118151BB48B3802647
:1019100018218DF8104004AD42B3176807B13D4659
:1019200097691FB139467F1E382F02D21779FF07FA
:1019300002D0002005B0F0BD576907B1BE08D2F84B
:1019400008C0BCF1000F0DD0D4685C2C18D312690C
:101950003AB137B18DE806103246294601F06DF9EB
:1019600003900DE0D7685FB912694AB903AACDE9BF
:101970000012B2B2294601F033F9012800D00394D5
:101980000398D7E7700000202DE9F041134C0F4673
:10199000054666692068001D00F038FC681C07D108
:1019A00037B12168BDE8F0410D48091D00F07EBC4B
:1019B00020683544B5424560216805D2A068BDE87D
:1019C000F041091D00F05ABC6068091D00F056FC8A
:1019D000206B854200D22563BDE8F0812000002005
:1019E000200600202DE9F041054600F06BFC2D4C4F
:1019F0002069401C206120682B4F10B1E06930B392
:101A00002BE025602069012827D1002606EB8600FF
:101A100007EB800000F024FC761C382EF6D3234818
:101A200000F01EFC2148143000F01AFC1F4828303A
:101A300000F016FC1D483C3000F012FC1B485030F2
:101A400000F00EFC194860601430A06005E02068CA
:101A5000E96AC06A884200D82560E06A401CE062FA
:101A60006864E86AA169884200D9A06100EB80003F
:101A700007EB8000291D00F019FC00F043FCE06931
:101A800000280CD02068E96AC06A884207D2084959
:101A90004FF080500860BFF34F8FBFF36F8FBDE8EA
:101AA000F08100002000002070010020D0050020FF
:101AB00004ED00E038B500F005FC104CA068C8B992
:101AC0000F4800F0CDFB0E48143000F0C9FB0C4865
:101AD0002060143060600A4B00202833009003F12E
:101AE000500210210A2000F01FFEA06010B105A1D5
:101AF00000F086FCBDE8384000F004BC5C0000202B
:101B000034060020546D72510000000030B4026CA5
:101B10000B46002A0BD0C1681144C1604468A14241
:101B200001D30168C16030BC1846FEF799BB30BCD8
:101B300070472DE9F041856B174604460026026C7C
:101B400082B1C7B1E068FEF78BFBE168206C091A2F
:101B5000E1602268914202D26168081AE060022FB7
:101B600016D017E02068A8B9606801F009F90646A8
:101B7000002060600EE0A068FEF772FB216CA06898
:101B80000844A0606168884204D32068A06001E036
:101B900005B16D1E6D1CA5633046BDE8F08110B522
:101BA000044690F8590058B101280CD002280FD0F3
:101BB000502080F31188BFF34F8FBFF36F8FFEE784
:101BC000206B00F0B3FB2046BDE8104000F0AEBB38
:101BD00010BD000010484FF44061420706D0C01D00
:101BE0000D4920F00700411AC1F540610B4A00235E
:101BF0000144C2E900030839103A21F007011160DD
:101C00004B600B600B1AC0E9001393604FF000406B
:101C10005360D06070470000040E00208400002054
:101C2000144E154CA6F29C474FF08058DFF84C90AC
:101C300012E000BF00F046FBF068C568281D00F008
:101C4000E5FA2069401E2061E068401EE06000F077
:101C500059FB2846FFF7A3FFE0680028EAD138685F
:101C60000128F9D9C9F80080BFF34F8FBFF36F8FF8
:101C7000F2E700000C0600202000002004ED00E048
:101C800070B51D46049C51B1C4F80020C4E90F0191
:101C90000121204600F07CFD84F84C5070BD24608A
:101CA000F4E72DE9F0470E46DDE909841746824640
:101CB00091009946089DA522206BFEF716FB6FF058
:101CC0000301206B01EB8701084420F00707780728
:101CD00007D0502080F31188BFF34F8FBFF36F8F71
:101CE000FEE72218315C82F83410315C11B1401CDF
:101CF0001028F6D3002684F84360382D00D337250A
:101D0000E562C4E91356201D00F0B5FA04F118008D
:101D100000F0B1FA2461C5F138006462A061666523
:101D200084F858604A465146384600F05DFA206013
:101D3000B8F1000F01D0C8F80040BDE8F0872DE9E8
:101D4000F0471E46DDE9089417460D0080460ED088
:101D5000002C14D0FFF7AEFEC4F80080C4E906578B
:101D6000C4E90869201DBDE8F04700F084BA50209E
:101D700080F31188BFF34F8FBFF36F8FFEE7BDE88D
:101D8000F087000030B5114900E011460A68824230
:101D9000FBD34B685C18844203D140681844486008
:101DA000084643681C18944209D1084C103C24682A
:101DB000A24209D052681A4442600A68126802605E
:101DC000814200D0086030BD0460F9E78400002043
:101DD00070B5002441600B4D0061914206D8D11AC4
:101DE0008269914206D2011D686807E09A4203D2D7
:101DF000994201D3012403E0011D286800F03EFA56
:101E0000204670BD5C00002010B5044600F05AFA70
:101E1000A06B28B15FF0000400F074FA204610BDFA
:101E20000124F9E730B589B0304D55E00498002819
:101E300006DADDE90601059A9047049800284BDB95
:101E4000069C606910B1201D00F0E0F902A800F0C6
:101E5000B9F8024604980A283ED2DFE800F00505EA
:101E6000053D263705053D260598A1690346014431
:101E70002046FFF7ADFF00B3616A20468847E0695E
:101E8000012829D1002000900598A169002342185B
:101E90001946204601F098F878B9502080F311884F
:101EA000BFF34F8FBFF36F8FFEE70598A06128B196
:101EB000811813462046FFF78BFF0DE0502080F37A
:101EC0001188BFF34F8FBFF36F8FFEE794F82C009C
:101ED00010B9204600F02AFA002204A9A86800F0F0
:101EE000A9FD0028A2D109B030BD00005C0000208F
:101EF0002DE9FC410F46054600F064FB01A800F007
:101F000061F80446019818B100F0B2FFBDE8FC8109
:101F1000224EAFB170680068A8B30027291B3A466B
:101F2000B06800F081FA00F0A3FF0028EED11C4950
:101F30004FF080500860BFF34F8FBFF36F8FE5E71E
:101F4000A542EBD800F094FF30682746C068C4680B
:101F5000201D00F05BF9E069012810D1A0692B4633
:101F600041193A462046FFF733FF40B100200346AF
:101F7000014600902A46204601F026F820B1616A09
:101F800020468847C2E707E0502080F31188BFF35E
:101F90004F8FBFF36F8FFEE70127BFE75C00002084
:101FA00004ED00E006484168096829B14168C96844
:101FB000C9684968016370474FF0FF31FAE70000D4
:101FC0002000002070B5054600F070FE064E044665
:101FD0003069844203D200F009F8012000E00020BB
:101FE00028602046346170BD5C000020F8B5194DB2
:101FF0001FE0C068C4680668201D00F007F9616A28
:1020000020468847E069012813D1A0693044B042D6
:1020100006D924616060211D286800F02FF908E0CE
:1020200000200346014600903246204600F0CCFFD7
:1020300038B1286801680029DBD16968C5E900105A
:10204000F8BD502080F31188BFF34F8FBFF36F8F1F
:10205000FEE700005C00002008484068401C4FF08C
:10206000500080F3118804D0BFF34F8FBFF36F8F00
:10207000FEE7BFF34F8FBFF36F8FFEE78C000020AA
:10208000074C2068016841B1C0680021D0F8000009
:10209000FFF72EFFFFF7C6FEF3E701210020F7E769
:1020A0005C0000202DE9F041044600F00BF994F9A2
:1020B000455004F1240609E0606A48B1304600F05A
:1020C0009FFE08B100F000FA6D1E6DB2002DF3DC2A
:1020D0004FF0FF3684F8456000F014F900F0F2F894
:1020E00094F9445004F1100709E0206948B13846DA
:1020F00000F086FE08B100F0E7F96D1E6DB2002D0C
:10210000F3DC84F84460BDE8F04100F0FBB8000067
:102110002DE9F0410546002700F054FA314E3068B1
:1021200008B9FFF757FDF06805424BD1C5B3083534
:1021300068070ED005F00700C0F1080005446807E5
:1021400007D0502080F31188BFF34F8FBFF36F8FFC
:10215000FEE72DB37068854234D82248103001461E
:102160000C6801E020460C466168A94202D2216851
:102170000029F7D131688C4224D0076821680160BA
:1021800060680837411B10290FD96019420708D031
:10219000502080F31188BFF34F8FBFF36F8FFEE79E
:1021A00010E041606560FFF7EDFD61687068401AFE
:1021B0007060B268904200D2B060F06801430020C5
:1021C000C4E9000100F054FE780707D0502080F3E6
:1021D0001188BFF34F8FBFF36F8FFEE73846BDE81E
:1021E000F08100007400002010B5031F4FF08074D0
:1021F0001C601B1F21F001011960191F024B0B60AD
:10220000143940380A6010BD59200008D0E9013265
:1022100001699A60D0E901235A604A68824201D17B
:1022200082684A60002202610868401E08600868EF
:1022300070470000034B036003F15C0008608020DE
:10224000106070474C070020044B036003F15C00F2
:1022500008604FF48070106070470000A8090020EB
:1022600000F108014FF0FF32C0E90112C1600161C5
:1022700000210160704700210161704730B50B6893
:102280005A1C02D000F1080202E0026904E0224672
:10229000546825689D42FAD953684B6099608A60FA
:1022A000516008610168491C016030BD42684A60A4
:1022B00093688B6093685960916008610168491C5C
:1022C00001607047502080F31188BFF34F8FBFF338
:1022D0006F8F0A494868401C486001280CD10848A3
:1022E000006810F0FF0F07D0502080F31188BFF373
:1022F0004F8FBFF36F8FFEE7704700008C00002008
:1023000004ED00E00849486828B1401E486001D14A
:1023100080F311887047502080F31188BFF34F8FEE
:10232000BFF36F8FFEE700008C00002070B500281F
:1023300027D0144DA0F108046168E868014207D174
:10234000502080F31188BFF34F8FBFF36F8FFEE7EC
:1023500022683AB1502080F31188BFF34F8FBFF34A
:102360006F8FFEE78143616000F02CF96068696857
:10237000084468602046FFF705FDBDE8704000F0A6
:1023800077BD70BD740000204FF0E0200021016196
:10239000816105494FF47A720968B1FBF2F1491E77
:1023A00041610721016170471C00002010B5FDF755
:1023B00033FF114910280ED300F1E02090F8F0030C
:1023C0000A78904207D2502080F31188BFF34F8FD4
:1023D000BFF36F8FFEE709480068896800F4E0608A
:1023E000884207D9502080F31188BFF34F8FBFF385
:1023F0006F8FFEE710BD00008C0000200CED00E0A8
:1024000010B5084B002200BF53F832401CB1521CDB
:10241000082AF9D310BD43F8321003EBC20148601B
:1024200010BD00003001002070B515460E46044670
:10243000FFF748FF94F944100020491C01D184F8AB
:10244000440094F94510491C01D184F84500FFF778
:1024500059FFA06B28B92A46314604F1240000F048
:1024600051F82046BDE87040FFF71CBE10B50200D1
:1024700014D00F48806B38B1502080F31188BFF31F
:102480004F8FBFF36F8FFEE700F09CF800211046DE
:10249000FFF77AFA00F0ECFC002807D105494FF06D
:1024A00080500860BFF34F8FBFF36F8F10BD0000E7
:1024B0002000002004ED00E002498A6A02604969B8
:1024C00041607047200000200149012048627047A8
:1024D0002000002010B50C4650B109490968183198
:1024E000FFF7CCFE2046BDE810400121FFF74CBAB3
:1024F000502080F31188BFF34F8FBFF36F8FFEE73B
:102500002000002070B514460D4668B10A490968DC
:102510001831FFF7CBFE0CB14FF0FF3521462846AE
:10252000BDE87040FFF730BA502080F31188BFF348
:102530004F8FBFF36F8FFEE72000002030B587B0CC
:102540000024039405AA04A903A80494FFF772FECB
:10255000DDE903010094CDE90110002315A117481E
:10256000059A00F06AFB164D002868631FD000F042
:10257000FBFC012809D0401C19D1502080F31188A0
:10258000BFF34F8FBFF36F8FFEE7502080F31188AA
:10259000BFF34F8FBFF36F8F4FF0FF3028630120E1
:1025A000E8616C6107B0BDE8304000F045B807B0A5
:1025B00030BD000049444C4500000000211C0008CB
:1025C000200000200248816B491C81637047000095
:1025D00020000020164810B5816B11B10121416225
:1025E00010BD002141628169124A01E0B9B1491E62
:1025F00001EB810352F82330002BF7D001EB81036C
:1026000002EB830202F1080453685B685360A34243
:1026100001D15B685360DA680260816110BD5020AF
:1026200080F31188BFF34F8FBFF36F8FFEE7000079
:1026300020000020700100201CB526490878019078
:10264000FF20087008788DF800009DF800009DF8C4
:10265000002000F0F000904207D0502080F3118855
:10266000BFF34F8FBFF36F8FFEE79DF800001A4B4B
:1026700000F0500018700720986005E09DF80020D9
:1026800052008DF80020401E9DF800201206F5D45F
:102690009860032807D0502080F31188BFF34F8F34
:1026A000BFF36F8FFEE74FF4407098600198087099
:1026B0000A48016841F470010160016841F070410D
:1026C0000160FFF761FE00205860FDF76FFD0020FC
:1026D0001CBD000000E400E08C00002020ED00E0C4
:1026E000F8B517460E46050014D0DEB105FB06F01E
:1026F0005030FFF70DFD04000AD0002084F846009A
:1027000004F150023B46314628460094FFF7B8FAE0
:102710002046F8BD502080F31188BFF34F8FBFF3E0
:102720006F8FFEE70020E3E738B5049D18B153B181
:10273000CAB181B120E0502080F31188BFF34F8FE0
:10274000BFF36F8FFEE7502080F31188BFF34F8FE8
:10275000BFF36F8FFEE7502080F31188BFF34F8FD8
:10276000BFF36F8FFEE739B1502080F31188BFF3BC
:102770004F8FBFF36F8FFEE750241C46012384F870
:1027800046302B460094FFF77BFA204638BD000008
:1027900070B50D46040025D0FFF794FDD4E90F2055
:1027A000216802FB001161600021A1632168A16022
:1027B0000A46D4E90F01401E00FB0121E1602146D9
:1027C0004FF0FF3001F8440F487004F110008DB154
:1027D000FFF746FD04F12400FFF742FDFFF792FDED
:1027E000012070BD502080F31188BFF34F8FBFF3DD
:1027F0006F8FFEE721690029F0D000F001FB00286F
:10280000ECD004494FF080500860BFF34F8FBFF306
:102810006F8FE3E704ED00E02DE9FF4782B01D462E
:102820008A464FF00008040003D0BAF1000F08D028
:1028300011E0502080F31188BFF34F8FBFF36F8FEB
:10284000FEE7206C38B1502080F31188BFF34F8F22
:10285000BFF36F8FFEE7022D0AD1E06B012807D08E
:10286000502080F31188BFF34F8FBFF36F8FFEE7C7
:1028700000F00EFA3F4F4FF000094FF0805648B974
:10288000049838B1502080F31188BFF34F8FBFF305
:102890006F8FFEE7FFF716FDA06BE16B884207D351
:1028A000022D05D00498D0B1B8F1000F1AD01EE067
:1028B0002A4651462046FFF73CF9616A19B104F1F6
:1028C000240000F09DFA20B13E60BFF34F8FBFF3AC
:1028D0006F8FFFF717FD012006B0BDE8F087FFF707
:1028E00011FD22E06846FFF7E7FD4FF00108FFF712
:1028F00009FDFFF767FEFFF7E5FC94F94400401C73
:1029000001D184F8449094F94500401C01D184F829
:102910004590FFF7F7FC04A9684600F027F930B1AD
:102920002046FFF7BFFB00F0A3FA0020D4E7FFF733
:10293000C9FCA06BE16B884213D1FFF7E3FC04F103
:1029400010000499FFF7C6FD2046FFF7ABFB00F02F
:102950008FFA00289ED13E60BFF34F8FBFF36F8F79
:1029600098E7FFF7CFFC2046FFF79CFB00F080FACA
:1029700090E7000004ED00E02DE9F0471F46904687
:102980008946040003D0B9F1000F08D011E05020AF
:1029900080F31188BFF34F8FBFF36F8FFEE7206C7A
:1029A00038B1502080F31188BFF34F8FBFF36F8F82
:1029B000FEE7022F0AD1E06B012807D0502080F3F8
:1029C0001188BFF34F8FBFF36F8FFEE7FFF7EEFC69
:1029D0005020EFF3118680F31188BFF34F8FBFF3C0
:1029E0006F8FA06BE16B884206D3022F04D00020CA
:1029F00086F31188BDE8F08794F945503A46494678
:102A00002046FFF796F8681C04D06D1C84F84550EA
:102A10000120EDE7606A0028FAD004F1240000F0FC
:102A2000EFF90028F4D0B8F1000FF1D00121C8F877
:102A30000010EDE72DE9F747002683B08A46040031
:102A400003D0BAF1000F08D011E0502080F31188B4
:102A5000BFF34F8FBFF36F8FFEE7206C38B150206C
:102A600080F31188BFF34F8FBFF36F8FFEE700F045
:102A70000FF9DFF8F4804FF000094FF0805748B9A4
:102A8000059838B1502080F31188BFF34F8FBFF302
:102A90006F8FFEE7FFF716FCA56BC5B151462046C8
:102AA000FFF734F86D1EA563206950B104F11000E2
:102AB00000F0A6F928B1C8F80070BFF34F8FBFF33C
:102AC0006F8FFFF71FFC012006B0BDE8F087059867
:102AD00008B11EB106E0FFF715FC27E06846FFF7D6
:102AE000EBFC0126FFF70EFCFFF76CFDFFF7EAFB9E
:102AF00094F94400401C01D184F8449094F94500B5
:102B0000401C01D184F84590FFF7FCFB05A96846FD
:102B100000F02CF8002820460AD0FFF7C3FA00F096
:102B2000A7F92046FFF770F90028B3D00020CBE7C3
:102B3000FFF76AF990B104F124000599FFF7CAFC88
:102B40002046FFF7AFFA00F093F90028A2D1C8F8A9
:102B50000070BFF34F8FBFF36F8F9BE72046FFF7E7
:102B6000A1FA00F085F995E704ED00E02DE9F041C8
:102B70000C46050011D0C4B1FFF7A4FB174B5A69EE
:102B80006E682068911B471C17D02F689B6A9F4274
:102B900019D0964217D8012410E0502080F31188F4
:102BA000BFF34F8FBFF36F8FFEE7502080F3118884
:102BB000BFF34F8FBFF36F8FFEE70024FFF7A2FB39
:102BC0002046BDE8F081884205D9401A2060284699
:102BD000FFF772FCF1E700202060DCE72000002016
:102BE0002DE9FF5F8346DDE90E87994616468A4642
:102BF0009000FFF78DFA05001CD05C20FFF788FAE3
:102C0000040014D00020256384F85900CDE9024067
:102C1000CDE900874B46324651465846FFF741F80A
:102C20002046FEF7DFFE012004B0BDE8F09F2846F5
:102C3000FFF77CFB4FF0FF30F6E7F0B585B0DDE93C
:102C40000B640A9DA6B1DCB15C27009726630226BF
:102C500084F85960002604AFCDE90246CDE900575B
:102C6000FFF71FF82046FEF7BDFE049805B0F0BD43
:102C7000502080F31188BFF34F8FBFF36F8FFEE7B3
:102C8000502080F31188BFF34F8FBFF36F8FFEE7A3
:102C90000548C16919B1806B18B100207047012047
:102CA0007047022070470000200000200148406962
:102CB00070470000200000202DE9F0412E4C002735
:102CC000A06B40B1206A401C2062606A00B10127FD
:102CD0003846BDE8F0816669761C666113D160688C
:102CE000006838B1502080F31188BFF34F8FBFF3D5
:102CF0006F8FFEE76068A1686160A060A06A401CF9
:102D0000A062FFF74FF9206BDFF87080864209D38D
:102D10006068006880B16068C068C568686886429D
:102D20000DD220632068C06A00EB800158F82100B2
:102D30000128CAD90127C8E74FF0FF30F1E7281D65
:102D4000FFF764FAA86A18B105F11800FFF75EFAF8
:102D5000E86AA169884200D9A06100EB800108EB14
:102D60008100291DFFF7A2FAE86A2168C96A884232
:102D7000CED30127CCE70000200000207001002006
:102D800070B504004FF0000133D01B4D2868844219
:102D900007D0502080F31188BFF34F8FBFF36F8FA0
:102DA000FEE7206D38B1401E2065E36CE26A9A426E
:102DB0001FD040B11DE0502080F31188BFF34F8F2A
:102DC000BFF36F8FFEE7201DFFF720FAE06CE06293
:102DD000C0F13800A061E06AA969884200D9A86101
:102DE000064900EB800001EB8000211DFFF75EFA31
:102DF0000121084670BD0000200000207001002065
:102E000070B5C068C46854B104F118000646FFF7F5
:102E1000FDF9144DA86B50B13146134815E0502010
:102E200080F31188BFF34F8FBFF36F8FFEE7201D34
:102E3000FFF7ECF9E06AA969884200D9A8610B495B
:102E400000EB800001EB8000211DFFF72FFAE06A04
:102E50002968C96A884202D90120686270BD0020D1
:102E600070BD000020000020F80500207001002047
:102E70002DE9F0472C4D00242746A86B38B1FFF709
:102E800021FAA86B401EA863A86B40B146E0502011
:102E900080F31188BFF34F8FBFF36F8FFEE729696F
:102EA000224E0120D1B3A6F5916980463068E0B189
:102EB000F068C46804F11800FFF7A8F9201DFFF7B7
:102EC000A5F9E06AA969884200D9A86100EB8001F0
:102ED00009EB8100211DFFF7E9F9E06A2968C96A59
:102EE0008842E3D3C5F82480E0E70CB1FFF75AF835
:102EF0002C6A4CB14FEA0806FFF7DEFE00B16E62A5
:102F0000641EF9D100202862686A38B10849012797
:102F100038070860BFF34F8FBFF36F8FFFF7F2F9E9
:102F20003846BDE8F087000020000020F8050020AA
:102F300004ED00E02DE9FC4781461E461746884611
:102F400030200A9DFFF7E4F804000AD0CDE90054D0
:102F500033463A4641464846FEF7F1FE002084F8E3
:102F60002C002046BDE8FC8710B586B0FEF7A2FD18
:102F7000114CA068B8B100200390049005AA04A9E0
:102F800003A8FFF761F9DDE9032102208DE80700BE
:102F900000230AA10B48059AFFF74FFEE06010B12D
:102FA00006B0012010BD502080F31188BFF34F8F71
:102FB000BFF36F8FFEE700005C000020546D7220AD
:102FC00053766300812000082DE9FF411E46134619
:102FD00002000A9D4FF0000016D0144CA768002F85
:102FE0000FD0CDE900130292062917DAFFF750FE41
:102FF00002284FF000030FD000226946A068FFF7B7
:103000000BFC04B0BDE8F081502080F31188BFF3C1
:103010004F8FBFF36F8FFEE72A46EEE7002332465D
:1030200069463846FFF7A8FCEBE700005C0000208B
:1030300080300008000000000000000000000000D8
:103040000000000000020000180000000000000066
:1030500000000000010202030405060708090A0B2C
:103060000C0D0E0F10100000000000000000010207
:103070000304060708090000000001020304000021
:1030800064656661756C745461736B00AC300008E4
:1030900000000020A0000000280100084C310008BA
:1030A000A0000020C81F000044010008000000002C
:1030B000000000000000000000000000010000000F
:1030C000100000000000000000127A000000000064
:1030D00000000000000000000000000000000000F0
:1030E00000000000000000000000000000000000E0
:1030F00000000000000000000000000000000000D0
:1031000000000000000000000000000000000000BF
:1031100000000000000000000000000000000000AF
:10312000000000000000000000000000000000009F
:10313000000000000000000000000000AAAAAAAAE7
:0C3140000000000000000000A0000020C3
:04000005080000ED02
:00000001FF
